{
  "address": "0x629d6f5c6035F3BfD8171282f551ffC1eFf20ec1",
  "abi": [
    {
      "inputs": [
        {
          "internalType": "uint256",
          "name": "_lockTime",
          "type": "uint256"
        },
        {
          "internalType": "address",
          "name": "dataFeedAddr",
          "type": "address"
        }
      ],
      "stateMutability": "nonpayable",
      "type": "constructor"
    },
    {
      "inputs": [],
      "name": "dataFeed",
      "outputs": [
        {
          "internalType": "contract AggregatorV3Interface",
          "name": "",
          "type": "address"
        }
      ],
      "stateMutability": "view",
      "type": "function"
    },
    {
      "inputs": [],
      "name": "fund",
      "outputs": [],
      "stateMutability": "payable",
      "type": "function"
    },
    {
      "inputs": [
        {
          "internalType": "address",
          "name": "",
          "type": "address"
        }
      ],
      "name": "fundersToAmount",
      "outputs": [
        {
          "internalType": "uint256",
          "name": "",
          "type": "uint256"
        }
      ],
      "stateMutability": "view",
      "type": "function"
    },
    {
      "inputs": [],
      "name": "getChainlinkDataFeedLatestAnswer",
      "outputs": [
        {
          "internalType": "int256",
          "name": "",
          "type": "int256"
        }
      ],
      "stateMutability": "view",
      "type": "function"
    },
    {
      "inputs": [],
      "name": "getFund",
      "outputs": [],
      "stateMutability": "nonpayable",
      "type": "function"
    },
    {
      "inputs": [],
      "name": "getFundSuccess",
      "outputs": [
        {
          "internalType": "bool",
          "name": "",
          "type": "bool"
        }
      ],
      "stateMutability": "view",
      "type": "function"
    },
    {
      "inputs": [],
      "name": "owner",
      "outputs": [
        {
          "internalType": "address",
          "name": "",
          "type": "address"
        }
      ],
      "stateMutability": "view",
      "type": "function"
    },
    {
      "inputs": [],
      "name": "refund",
      "outputs": [],
      "stateMutability": "nonpayable",
      "type": "function"
    },
    {
      "inputs": [
        {
          "internalType": "address",
          "name": "_erc20Addr",
          "type": "address"
        }
      ],
      "name": "setErc20Addr",
      "outputs": [],
      "stateMutability": "nonpayable",
      "type": "function"
    },
    {
      "inputs": [
        {
          "internalType": "address",
          "name": "funder",
          "type": "address"
        },
        {
          "internalType": "uint256",
          "name": "amountToUpdate",
          "type": "uint256"
        }
      ],
      "name": "setFunderToAmount",
      "outputs": [],
      "stateMutability": "nonpayable",
      "type": "function"
    },
    {
      "inputs": [
        {
          "internalType": "address",
          "name": "newOwner",
          "type": "address"
        }
      ],
      "name": "transferOwnerShip",
      "outputs": [],
      "stateMutability": "nonpayable",
      "type": "function"
    }
  ],
  "transactionHash": "0x7a1cc3f31044827f6a5272a9573453e25008e7273a38ffb339f628253f7d714e",
  "args": [
    180,
    "0x694AA1769357215DE4FAC081bf1f309aDC325306"
  ],
  "numDeployments": 1,
  "solcInputHash": "506fa3214d67db68b555fbdb42d4586f",
  "bytecode": "0x60806040526000600560146101000a81548160ff02191690831515021790555034801561002b57600080fd5b506040516115bc3803806115bc833981810160405281019061004d919061017c565b806000806101000a81548173ffffffffffffffffffffffffffffffffffffffff021916908373ffffffffffffffffffffffffffffffffffffffff16021790555033600460006101000a81548173ffffffffffffffffffffffffffffffffffffffff021916908373ffffffffffffffffffffffffffffffffffffffff160217905550426002819055508160038190555050506101bc565b600080fd5b6000819050919050565b6100fb816100e8565b811461010657600080fd5b50565b600081519050610118816100f2565b92915050565b600073ffffffffffffffffffffffffffffffffffffffff82169050919050565b60006101498261011e565b9050919050565b6101598161013e565b811461016457600080fd5b50565b60008151905061017681610150565b92915050565b60008060408385031215610193576101926100e3565b5b60006101a185828601610109565b92505060206101b285828601610167565b9150509250929050565b6113f1806101cb6000396000f3fe60806040526004361061009c5760003560e01c80639e42ff90116100645780639e42ff901461014c5780639f883a0514610177578063b60d4288146101b4578063bea4dfb5146101be578063d39cf006146101e9578063da4658e0146102125761009c565b806313ffff01146100a1578063590e1ae3146100ca5780638863dd1a146100e15780638da5cb5b1461010a5780638edd6eb614610135575b600080fd5b3480156100ad57600080fd5b506100c860048036038101906100c39190610b6e565b61023d565b005b3480156100d657600080fd5b506100df610311565b005b3480156100ed57600080fd5b5061010860048036038101906101039190610b6e565b61051e565b005b34801561011657600080fd5b5061011f6105f2565b60405161012c9190610baa565b60405180910390f35b34801561014157600080fd5b5061014a610618565b005b34801561015857600080fd5b50610161610818565b60405161016e9190610c24565b60405180910390f35b34801561018357600080fd5b5061019e60048036038101906101999190610b6e565b61083c565b6040516101ab9190610c58565b60405180910390f35b6101bc610854565b005b3480156101ca57600080fd5b506101d3610951565b6040516101e09190610c8c565b60405180910390f35b3480156101f557600080fd5b50610210600480360381019061020b9190610cd3565b6109f0565b005b34801561021e57600080fd5b50610227610ac8565b6040516102349190610d2e565b60405180910390f35b600460009054906101000a900473ffffffffffffffffffffffffffffffffffffffff1673ffffffffffffffffffffffffffffffffffffffff163373ffffffffffffffffffffffffffffffffffffffff16146102cd576040517f08c379a00000000000000000000000000000000000000000000000000000000081526004016102c490610dcc565b60405180910390fd5b80600560006101000a81548173ffffffffffffffffffffffffffffffffffffffff021916908373ffffffffffffffffffffffffffffffffffffffff16021790555050565b6003546002546103219190610e1b565b421015610363576040517f08c379a000000000000000000000000000000000000000000000000000000000815260040161035a90610e9b565b60405180910390fd5b683635c9adc5dea0000047106103ae576040517f08c379a00000000000000000000000000000000000000000000000000000000081526004016103a590610f07565b60405180910390fd5b6000600160003373ffffffffffffffffffffffffffffffffffffffff1673ffffffffffffffffffffffffffffffffffffffff1681526020019081526020016000205403610430576040517f08c379a000000000000000000000000000000000000000000000000000000000815260040161042790610f73565b60405180910390fd5b60003373ffffffffffffffffffffffffffffffffffffffff16600160003373ffffffffffffffffffffffffffffffffffffffff1673ffffffffffffffffffffffffffffffffffffffff1681526020019081526020016000205460405161049590610fc4565b60006040518083038185875af1925050503d80600081146104d2576040519150601f19603f3d011682016040523d82523d6000602084013e6104d7565b606091505b505090508061051b576040517f08c379a000000000000000000000000000000000000000000000000000000000815260040161051290611025565b60405180910390fd5b50565b600460009054906101000a900473ffffffffffffffffffffffffffffffffffffffff1673ffffffffffffffffffffffffffffffffffffffff163373ffffffffffffffffffffffffffffffffffffffff16146105ae576040517f08c379a00000000000000000000000000000000000000000000000000000000081526004016105a590610dcc565b60405180910390fd5b80600460006101000a81548173ffffffffffffffffffffffffffffffffffffffff021916908373ffffffffffffffffffffffffffffffffffffffff16021790555050565b600460009054906101000a900473ffffffffffffffffffffffffffffffffffffffff1681565b6003546002546106289190610e1b565b42101561066a576040517f08c379a000000000000000000000000000000000000000000000000000000000815260040161066190610e9b565b60405180910390fd5b600460009054906101000a900473ffffffffffffffffffffffffffffffffffffffff1673ffffffffffffffffffffffffffffffffffffffff163373ffffffffffffffffffffffffffffffffffffffff16146106fa576040517f08c379a00000000000000000000000000000000000000000000000000000000081526004016106f190610dcc565b60405180910390fd5b683635c9adc5dea0000061070d47610adb565b101561074e576040517f08c379a000000000000000000000000000000000000000000000000000000000815260040161074590611091565b60405180910390fd5b60003373ffffffffffffffffffffffffffffffffffffffff164760405161077490610fc4565b60006040518083038185875af1925050503d80600081146107b1576040519150601f19603f3d011682016040523d82523d6000602084013e6107b6565b606091505b50509050806107fa576040517f08c379a00000000000000000000000000000000000000000000000000000000081526004016107f1906110fd565b60405180910390fd5b6001600560146101000a81548160ff02191690831515021790555050565b60008054906101000a900473ffffffffffffffffffffffffffffffffffffffff1681565b60016020528060005260406000206000915090505481565b68056bc75e2d6310000061086734610adb565b10156108a8576040517f08c379a000000000000000000000000000000000000000000000000000000000815260040161089f90611169565b60405180910390fd5b6003546002546108b89190610e1b565b42116108f9576040517f08c379a00000000000000000000000000000000000000000000000000000000081526004016108f090610e9b565b60405180910390fd5b34600160003373ffffffffffffffffffffffffffffffffffffffff1673ffffffffffffffffffffffffffffffffffffffff16815260200190815260200160002060008282546109489190610e1b565b92505081905550565b60008060008054906101000a900473ffffffffffffffffffffffffffffffffffffffff1673ffffffffffffffffffffffffffffffffffffffff1663feaf968c6040518163ffffffff1660e01b815260040160a060405180830381865afa1580156109bf573d6000803e3d6000fd5b505050506040513d601f19601f820116820180604052508101906109e3919061120c565b5050509150508091505090565b600560009054906101000a900473ffffffffffffffffffffffffffffffffffffffff1673ffffffffffffffffffffffffffffffffffffffff163373ffffffffffffffffffffffffffffffffffffffff1614610a80576040517f08c379a0000000000000000000000000000000000000000000000000000000008152600401610a77906112f9565b60405180910390fd5b80600160008473ffffffffffffffffffffffffffffffffffffffff1673ffffffffffffffffffffffffffffffffffffffff168152602001908152602001600020819055505050565b600560149054906101000a900460ff1681565b600080610ae6610951565b90506305f5e1008382610af99190611319565b610b03919061138a565b915050919050565b600080fd5b600073ffffffffffffffffffffffffffffffffffffffff82169050919050565b6000610b3b82610b10565b9050919050565b610b4b81610b30565b8114610b5657600080fd5b50565b600081359050610b6881610b42565b92915050565b600060208284031215610b8457610b83610b0b565b5b6000610b9284828501610b59565b91505092915050565b610ba481610b30565b82525050565b6000602082019050610bbf6000830184610b9b565b92915050565b6000819050919050565b6000610bea610be5610be084610b10565b610bc5565b610b10565b9050919050565b6000610bfc82610bcf565b9050919050565b6000610c0e82610bf1565b9050919050565b610c1e81610c03565b82525050565b6000602082019050610c396000830184610c15565b92915050565b6000819050919050565b610c5281610c3f565b82525050565b6000602082019050610c6d6000830184610c49565b92915050565b6000819050919050565b610c8681610c73565b82525050565b6000602082019050610ca16000830184610c7d565b92915050565b610cb081610c3f565b8114610cbb57600080fd5b50565b600081359050610ccd81610ca7565b92915050565b60008060408385031215610cea57610ce9610b0b565b5b6000610cf885828601610b59565b9250506020610d0985828601610cbe565b9150509250929050565b60008115159050919050565b610d2881610d13565b82525050565b6000602082019050610d436000830184610d1f565b92915050565b600082825260208201905092915050565b7f546869732066756e6374696f6e2063616e2062652063616c6c6564206279206f60008201527f776e65722e000000000000000000000000000000000000000000000000000000602082015250565b6000610db6602583610d49565b9150610dc182610d5a565b604082019050919050565b60006020820190508181036000830152610de581610da9565b9050919050565b7f4e487b7100000000000000000000000000000000000000000000000000000000600052601160045260246000fd5b6000610e2682610c3f565b9150610e3183610c3f565b9250828201905080821115610e4957610e48610dec565b5b92915050565b7f57696e646f7720697320636c6f7365642e000000000000000000000000000000600082015250565b6000610e85601183610d49565b9150610e9082610e4f565b602082019050919050565b60006020820190508181036000830152610eb481610e78565b9050919050565b7f54617267657420697320726561636865642e0000000000000000000000000000600082015250565b6000610ef1601283610d49565b9150610efc82610ebb565b602082019050919050565b60006020820190508181036000830152610f2081610ee4565b9050919050565b7f5468657265206973206e6f2066756e6420666f7220796f752e00000000000000600082015250565b6000610f5d601983610d49565b9150610f6882610f27565b602082019050919050565b60006020820190508181036000830152610f8c81610f50565b9050919050565b600081905092915050565b50565b6000610fae600083610f93565b9150610fb982610f9e565b600082019050919050565b6000610fcf82610fa1565b9150819050919050565b7f526566756e64206973206661696c65642e000000000000000000000000000000600082015250565b600061100f601183610d49565b915061101a82610fd9565b602082019050919050565b6000602082019050818103600083015261103e81611002565b9050919050565b7f546172676574206973206e6f20726561636865642e0000000000000000000000600082015250565b600061107b601583610d49565b915061108682611045565b602082019050919050565b600060208201905081810360008301526110aa8161106e565b9050919050565b7f5478206661696c65642e00000000000000000000000000000000000000000000600082015250565b60006110e7600a83610d49565b91506110f2826110b1565b602082019050919050565b60006020820190508181036000830152611116816110da565b9050919050565b7f53656e64206d6f7265206574682e2e2e00000000000000000000000000000000600082015250565b6000611153601083610d49565b915061115e8261111d565b602082019050919050565b6000602082019050818103600083015261118281611146565b9050919050565b600069ffffffffffffffffffff82169050919050565b6111a881611189565b81146111b357600080fd5b50565b6000815190506111c58161119f565b92915050565b6111d481610c73565b81146111df57600080fd5b50565b6000815190506111f1816111cb565b92915050565b60008151905061120681610ca7565b92915050565b600080600080600060a0868803121561122857611227610b0b565b5b6000611236888289016111b6565b9550506020611247888289016111e2565b9450506040611258888289016111f7565b9350506060611269888289016111f7565b925050608061127a888289016111b6565b9150509295509295909350565b7f596f7520646f6e27742068617665207065726d697373696f6e20746f2063616c60008201527f6c20746869732066756e6374696f6e2e00000000000000000000000000000000602082015250565b60006112e3603083610d49565b91506112ee82611287565b604082019050919050565b60006020820190508181036000830152611312816112d6565b9050919050565b600061132482610c3f565b915061132f83610c3f565b925082820261133d81610c3f565b9150828204841483151761135457611353610dec565b5b5092915050565b7f4e487b7100000000000000000000000000000000000000000000000000000000600052601260045260246000fd5b600061139582610c3f565b91506113a083610c3f565b9250826113b0576113af61135b565b5b82820490509291505056fea26469706673582212209da226a2e7a345c704e8f9b988fa8d135b74e0c5edaefd90f447411ad852ceed64736f6c634300081c0033",
  "devdoc": {
    "kind": "dev",
    "methods": {},
    "version": 1
  },
  "userdoc": {
    "kind": "user",
    "methods": {
      "getChainlinkDataFeedLatestAnswer()": {
        "notice": "Returns the latest answer."
      }
    },
    "version": 1
  },
  "storageLayout": {
    "storage": [
      {
        "astId": 52,
        "contract": "contracts/fundMe.sol:FundMe",
        "label": "dataFeed",
        "offset": 0,
        "slot": "0",
        "type": "t_contract(AggregatorV3Interface)45"
      },
      {
        "astId": 56,
        "contract": "contracts/fundMe.sol:FundMe",
        "label": "fundersToAmount",
        "offset": 0,
        "slot": "1",
        "type": "t_mapping(t_address,t_uint256)"
      },
      {
        "astId": 72,
        "contract": "contracts/fundMe.sol:FundMe",
        "label": "deploymentTimeStamp",
        "offset": 0,
        "slot": "2",
        "type": "t_uint256"
      },
      {
        "astId": 74,
        "contract": "contracts/fundMe.sol:FundMe",
        "label": "lockTime",
        "offset": 0,
        "slot": "3",
        "type": "t_uint256"
      },
      {
        "astId": 76,
        "contract": "contracts/fundMe.sol:FundMe",
        "label": "owner",
        "offset": 0,
        "slot": "4",
        "type": "t_address"
      },
      {
        "astId": 78,
        "contract": "contracts/fundMe.sol:FundMe",
        "label": "erc20Addr",
        "offset": 0,
        "slot": "5",
        "type": "t_address"
      },
      {
        "astId": 81,
        "contract": "contracts/fundMe.sol:FundMe",
        "label": "getFundSuccess",
        "offset": 20,
        "slot": "5",
        "type": "t_bool"
      }
    ],
    "types": {
      "t_address": {
        "encoding": "inplace",
        "label": "address",
        "numberOfBytes": "20"
      },
      "t_bool": {
        "encoding": "inplace",
        "label": "bool",
        "numberOfBytes": "1"
      },
      "t_contract(AggregatorV3Interface)45": {
        "encoding": "inplace",
        "label": "contract AggregatorV3Interface",
        "numberOfBytes": "20"
      },
      "t_mapping(t_address,t_uint256)": {
        "encoding": "mapping",
        "key": "t_address",
        "label": "mapping(address => uint256)",
        "numberOfBytes": "32",
        "value": "t_uint256"
      },
      "t_uint256": {
        "encoding": "inplace",
        "label": "uint256",
        "numberOfBytes": "32"
      }
    }
  }
}